:100000000C942A000C9447000C9447000C94470071
:100010000C9447000C9447000C9447000C94470044
:100020000C9447000C9447000C9447000C94470034
:100030000C9447000C9447000C9447000C94470024
:100040000C9447000C9447000C9447000C94470014
:100050000C94470011241FBECFE5D8E0DEBFCDBF12
:1000600010E0A0E6B0E0E8E3F7E202C005900D92F0
:10007000AE39B107D9F710E0AEE9B0E001C01D928A
:10008000A73AB107E1F70E94A5110C949A130C94BA
:100090000000EF92FF920F931F937B018C0120E0F1
:1000A00030E040E05FE40E94490388238CF0C801FF
:1000B000B70120E030E040E05FE40E94C1010E940F
:1000C000A9039B01AC01205030404040504806C07D
:1000D000C801B7010E94A9039B01AC01B901CA0183
:1000E0001F910F91FF90EF900895A0E0B0E0EBE733
:1000F000F0E00C945E12DC012B01FA019C9192302D
:1001000008F439C1EB018881823008F433C194309E
:1001100069F4843009F02FC111969C91119789815F
:10012000981709F428C1AFE8B0E025C1843009F47C
:1001300021C18230A9F4923009F01DC19A01AD01AC
:1001400088E0EA010990AE01E90109929E0181501F
:10015000C1F7E201898111969C918923818308C1AD
:10016000923009F407C112962D903C901397EB0141
:100170008A819B811496AD90BD90CD90DC901797AD
:10018000EC80FD800E811F819101281B390BB90184
:1001900037FF04C066277727621B730B6032710537
:1001A0000CF061C0121613066CF537014801062EDB
:1001B00004C096948794779467940A94D2F721E0C8
:1001C00030E040E050E004C0220F331F441F551FB1
:1001D0006A95D2F721503040404050402E213F21B7
:1001E00040235123211531054105510521F021E01E
:1001F00030E040E050E079018A01E628F72808293C
:1002000019293CC0232BD1F1260E371E350146019A
:10021000062E04C096948794779467940A94D2F734
:1002200021E030E040E050E004C0220F331F441FC3
:10023000551F6A95D2F721503040404050402A2146
:100240003B214C215D21211531054105510521F04E
:1002500021E030E040E050E059016A01A628B728CB
:10026000C828D9280BC0821593052CF01C01AA249C
:10027000BB24650103C0EE24FF24870111969C91E5
:10028000D20111968C91981709F445C0992339F041
:10029000A80197012A193B094C095D0906C0A6016E
:1002A00095012E193F09400B510B57FD08C01182D3
:1002B0003382228224833583468357831DC081E0A5
:1002C00081833382228288279927DC01821B930B4A
:1002D000A40BB50B84839583A683B7830DC0220F2F
:1002E000331F441F551F24833583468357838281E0
:1002F000938101979383828324813581468157813D
:10030000DA01C9010197A109B1098F5F9F4FAF4F72
:10031000BF4328F30BC0918333822282EA0CFB1C7B
:100320000C1D1D1DE482F5820683178383E0808304
:10033000248135814681578157FF1AC0C901AA27F8
:1003400097FDA095BA2F81709070A070B0705695EF
:10035000479537952795822B932BA42BB52B848318
:100360009583A683B7838281938101969383828349
:10037000DF0101C0D201CD01CDB7DEB7E2E10C94BF
:100380007A12A0E2B0E0E7ECF1E00C946A12698323
:100390007A838B839C832D833E834F835887E9E048
:1003A000EE2EF12CEC0EFD1ECE010196B7010E943F
:1003B000D2048E010F5E1F4FCE010596B8010E9438
:1003C000D2048A8991E089278A8BC701B801AE01DE
:1003D000475E5F4F0E9475000E94FD03A096E6E015
:1003E0000C948612A0E2B0E0E8EFF1E00C946A12FF
:1003F00069837A838B839C832D833E834F835887C5
:10040000F9E0EF2EF12CEC0EFD1ECE010196B701A6
:100410000E94D2048E010F5E1F4FCE010596B801D7
:100420000E94D204C701B801AE01475E5F4F0E942F
:1004300075000E94FD03A096E6E00C948612A0E2EF
:10044000B0E0E5E2F2E00C945E1269837A838B837C
:100450009C832D833E834F835887CE010196BE0136
:10046000675F7F4F0E94D204CE010596BE016F5E8A
:100470007F4F0E94D2049985923088F0898982301A
:10048000C8F0943019F4823051F404C0843029F457
:10049000923081F48FE890E0C6C0923049F420E0B9
:1004A0009A858A89981321E02A87CE010996BBC0D4
:1004B000823049F420E09A858A89981321E02A8BBA
:1004C000CE014196B0C02D843E844F8458886D88FB
:1004D0007E888F88988CEE24FF248701AA24BB2471
:1004E000650140E050E060E070E0E0E0F0E0C10174
:1004F00081709070892BE9F0E60CF71C081D191D1E
:100500009A01AB012A0D3B1D4C1D5D1D80E090E062
:10051000A0E0B0E0E614F7040805190520F481E036
:1005200090E0A0E0B0E0BA01A901480F591F6A1F8E
:100530007B1FAA0CBB1CCC1CDD1C97FE08C081E0F5
:1005400090E0A0E0B0E0A82AB92ACA2ADB2A3196B6
:10055000E032F10549F0660C771C881C991C569412
:10056000479437942794C3CFFA85EA892B893C892D
:100570008B859C85280F391F2E5F3F4F17C0CA01FE
:1005800081709070892B61F016950795F794E79428
:1005900080E090E0A0E0B0E8E82AF92A0A2B1B2BC3
:1005A00076956795579547952F5F3F4F77FDE7CF36
:1005B0000CC0440F551F661F771F17FD4160EE0CDE
:1005C000FF1C001F111F21503040403090E05907A0
:1005D00090E0690790E4790760F32B8F3C8FDB0193
:1005E000CA018F779070A070B07080349105A1051A
:1005F000B10561F447FD0AC0E114F10401051105DC
:1006000029F0405C5F4F6F4F7F4F40781A8EFE1786
:1006100011F081E08A8F4D8F5E8F6F8F78A383E01A
:10062000898FCE0149960E94FD03A096E2E10C94C9
:100630007A12A8E1B0E0EFE1F3E00C946A1269836A
:100640007A838B839C832D833E834F83588789E0F5
:10065000E82EF12CEC0EFD1ECE010196B7010E9492
:10066000D2048E010F5E1F4FCE010596B8010E9485
:10067000D2048985823040F08989823028F0C70110
:10068000B8010E944A0501C08FEF6896E6E00C941D
:100690008612A8E1B0E0EFE4F3E00C946A126983FB
:1006A0007A838B839C832D833E834F83588789E095
:1006B000E82EF12CEC0EFD1ECE010196B7010E9432
:1006C000D2048E010F5E1F4FCE010596B8010E9425
:1006D000D2048985823040F08989823028F0C701B0
:1006E000B8010E944A0501C08FEF6896E6E00C94BD
:1006F0008612A8E1B0E0EFE7F3E00C946A12698398
:100700007A838B839C832D833E834F83588789E034
:10071000E82EF12CEC0EFD1ECE010196B7010E94D1
:10072000D2048E010F5E1F4FCE010596B8010E94C4
:10073000D2048985823040F08989823028F0C7014F
:10074000B8010E944A0501C081E06896E6E00C9479
:100750008612ACE0B0E0EFEAF3E00C946E1269832D
:100760007A838B839C83CE010196BE016B5F7F4FA2
:100770000E94D2048D81823061F1823050F1843048
:1007800021F48E81882351F12EC02F81388537FDC9
:1007900020C06E812F3131051CF06623F9F023C093
:1007A0008EE190E0821B930B29853A854B855C8511
:1007B00004C056954795379527958A95D2F76623B5
:1007C000B1F050954095309521953F4F4F4F5F4F79
:1007D0000EC020E030E040E050E009C02FEF3FEFD6
:1007E0004FEF5FE704C020E030E040E050E8B9019F
:1007F000CA012C96E2E00C948A12DF92EF92FF92EB
:100800000F931F93FC01E480F58006811781D1804E
:100810008081823048F480E090E0A0E1B0E0E82AF6
:10082000F92A0A2B1B2BA5C0843009F49FC0823003
:1008300021F4EE24FF24870105C0E114F104010531
:10084000110519F4E0E0F0E096C0628173819FEF3A
:10085000623879070CF05BC022E83FEF261B370BAC
:100860002A3131052CF020E030E040E050E02AC091
:10087000B801A701022E04C0769567955795479554
:100880000A94D2F781E090E0A0E0B0E004C0880FC5
:10089000991FAA1FBB1F2A95D2F70197A109B10979
:1008A0008E219F21A023B1230097A105B10521F03E
:1008B00081E090E0A0E0B0E09A01AB01282B392B59
:1008C0004A2B5B2BDA01C9018F779070A070B07052
:1008D00080349105A105B10539F427FF09C0205CDA
:1008E0003F4F4F4F5F4F04C0215C3F4F4F4F5F4F13
:1008F000E0E0F0E02030A0E03A07A0E04A07A0E402
:100900005A0710F0E1E0F0E079018A0127C0603871
:10091000710564F5FB01E158FF4FD801C7018F77DE
:100920009070A070B07080349105A105B10539F4C4
:10093000E7FE0DC080E490E0A0E0B0E004C08FE3EB
:1009400090E0A0E0B0E0E80EF91E0A1F1B1F17FFA1
:1009500005C016950795F794E794319687E01695AC
:100960000795F794E7948A95D1F705C0EE24FF2404
:100970008701EFEFF0E06E2F679566276795902F60
:100980009F77D794DD24D7948E2F8695492F462BB9
:10099000582F5D29B701CA011F910F91FF90EF9069
:1009A000DF900895FC01DB01408151812281622F9B
:1009B0006F7770E0221F2227221F9381892F880FD3
:1009C000822B282F30E0991F9927991F11969C930D
:1009D000119721153105A9F54115510561057105DD
:1009E00011F482E037C082E89FEF13969C938E93B8
:1009F00012979A01AB0167E0220F331F441F551F66
:100A00006A95D1F783E08C930DC0220F331F441FEA
:100A1000551F12968D919C911397019713969C9355
:100A20008E931297203080E0380780E0480780E4FA
:100A3000580758F314962D933D934D935C93179755
:100A400008952F3F310579F4411551056105710570
:100A500019F484E08C93089564FF03C081E08C93C3
:100A600012C01C9210C02F57304013963C932E9307
:100A7000129783E08C9387E0440F551F661F771F02
:100A80008A95D1F7706414964D935D936D937C9322
:100A9000179708951F93DC01FB019C91923008F495
:100AA00047C08081823008F443C0943051F41196DD
:100AB0001C91843099F58181682F70E0611B710968
:100AC0003FC0843021F0923031F48230B9F181811D
:100AD000882389F12DC011961C9111978230F1F075
:100AE00081811817D9F412962D913C911397828128
:100AF00093818217930794F028173907BCF0149656
:100B00008D919D910D90BC91A02D248135814681C0
:100B10005781281739074A075B0718F4112341F05A
:100B20000AC082179307A407B50740F4112319F0F0
:100B300061E070E005C06FEF7FEF02C060E070E041
:100B4000CB011F910895DF93CF93CDB7DEB72797E1
:100B50000FB6F894DEBF0FBECDBF89836A834B8387
:100B60008981843008F0EEC08A81883008F0EAC0BC
:100B70008B81813009F06FC08981282F30E03F835D
:100B80002E838E819F818130910549F12E813F8195
:100B9000223031052CF48E819F81009761F0D2C004
:100BA0002E813F812230310571F18E819F8183300A
:100BB0009105E9F1C7C0ABE3B0E0EBE3F0E0808181
:100BC000482F8A81282F30E081E090E0022E02C079
:100BD000880F991F0A94E2F7842B8C93B3C0A8E383
:100BE000B0E0E8E3F0E08081482F8A81282F30E0F0
:100BF00081E090E0022E02C0880F991F0A94E2F76C
:100C0000842B8C939FC0A5E3B0E0E5E3F0E0808106
:100C1000482F8A81282F30E081E090E0022E02C028
:100C2000880F991F0A94E2F7842B8C938BC0A2E360
:100C3000B0E0E2E3F0E08081482F8A81282F30E0A5
:100C400081E090E0022E02C0880F991F0A94E2F71B
:100C5000842B8C9377C08B81882309F073C08981A2
:100C6000282F30E03D832C838C819D81813091053C
:100C700059F12C813D81223031052CF48C819D81EC
:100C8000009769F05FC02C813D812230310589F1E8
:100C90008C819D818330910509F440C053C0ABE342
:100CA000B0E0EBE3F0E08081482F8A81282F30E02C
:100CB00081E090E0022E02C0880F991F0A94E2F7AB
:100CC000809584238C933EC0A8E3B0E0E8E3F0E095
:100CD0008081482F8A81282F30E081E090E0022E29
:100CE00002C0880F991F0A94E2F7809584238C93A1
:100CF00029C0A5E3B0E0E5E3F0E08081482F8A81D8
:100D0000282F30E081E090E0022E02C0880F991F6A
:100D10000A94E2F7809584238C9314C0A2E3B0E098
:100D2000E2E3F0E08081482F8A81282F30E081E0E3
:100D300090E0022E02C0880F991F0A94E2F7809576
:100D400084238C9327960FB6F894DEBF0FBECDBFD9
:100D5000CF91DF910895DF93CF93CDB7DEB727977B
:100D60000FB6F894DEBF0FBECDBF89836A834B8375
:100D70008981843008F0EEC08A81883008F0EAC0AA
:100D80008B81813009F06FC08981282F30E03F834B
:100D90002E838E819F818130910549F12E813F8183
:100DA000223031052CF48E819F81009761F0D2C0F2
:100DB0002E813F812230310571F18E819F818330F8
:100DC0009105E9F1C7C0AAE3B0E0EAE3F0E0808171
:100DD000482F8A81282F30E081E090E0022E02C067
:100DE000880F991F0A94E2F7842B8C93B3C0A7E372
:100DF000B0E0E7E3F0E08081482F8A81282F30E0DF
:100E000081E090E0022E02C0880F991F0A94E2F759
:100E1000842B8C939FC0A4E3B0E0E4E3F0E08081F6
:100E2000482F8A81282F30E081E090E0022E02C016
:100E3000880F991F0A94E2F7842B8C938BC0A1E34F
:100E4000B0E0E1E3F0E08081482F8A81282F30E094
:100E500081E090E0022E02C0880F991F0A94E2F709
:100E6000842B8C9377C08B81882309F073C0898190
:100E7000282F30E03D832C838C819D81813091052A
:100E800059F12C813D81223031052CF48C819D81DA
:100E9000009769F05FC02C813D812230310589F1D6
:100EA0008C819D818330910509F440C053C0AAE331
:100EB000B0E0EAE3F0E08081482F8A81282F30E01B
:100EC00081E090E0022E02C0880F991F0A94E2F799
:100ED000809584238C933EC0A7E3B0E0E7E3F0E085
:100EE0008081482F8A81282F30E081E090E0022E17
:100EF00002C0880F991F0A94E2F7809584238C938F
:100F000029C0A4E3B0E0E4E3F0E08081482F8A81C7
:100F1000282F30E081E090E0022E02C0880F991F58
:100F20000A94E2F7809584238C9314C0A1E3B0E087
:100F3000E1E3F0E08081482F8A81282F30E081E0D2
:100F400090E0022E02C0880F991F0A94E2F7809564
:100F500084238C9327960FB6F894DEBF0FBECDBFC7
:100F6000CF91DF910895DF93CF9300D000D00F92FF
:100F7000CDB7DEB78A836B838A81843008F06EC078
:100F80008B81883008F06AC08A81282F30E03D8349
:100F90002C834C815D814130510541F18C819D81D3
:100FA0008230910534F42C813D812115310561F0A9
:100FB00053C04C815D814230510551F18C819D813E
:100FC00083309105B9F148C0E9E3F0E08081282F32
:100FD00030E08B81882F90E0A90102C0559547959C
:100FE0008A95E2F7CA018170898338C0E6E3F0E0B0
:100FF0008081282F30E08B81882F90E0A90102C0EA
:10100000559547958A95E2F7CA018170898326C074
:10101000E3E3F0E08081282F30E08B81882F90E09F
:10102000A90102C0559547958A95E2F7CA018170DA
:10103000898314C0E0E3F0E08081282F30E08B81C9
:10104000882F90E0A90102C0559547958A95E2F74F
:10105000CA018170898302C08FEF89838FEF8983F2
:1010600089810F900F900F900F900F90CF91DF918B
:101070000895DF93CF9300D000D0CDB7DEB789833A
:101080006A838981282F30E03C832B838B819C816C
:1010900081309105D1F02B813C81223031052CF437
:1010A0008B819C81009761F01EC02B813C81223096
:1010B000310581F08B819C818330910581F013C0D3
:1010C000EAE3F0E08A8180830EC0E7E3F0E08A8102
:1010D000808309C0E4E3F0E08A81808304C0E1E317
:1010E000F0E08A8180830F900F900F900F90CF9146
:1010F000DF910895DF93CF9300D000D0CDB7DEB756
:1011000089836A838981282F30E03C832B838B81FC
:101110009C8181309105D1F02B813C8122303105B9
:101120002CF48B819C81009761F01EC02B813C8147
:101130002230310581F08B819C818330910581F0D3
:1011400013C0EBE3F0E08A8180830EC0E8E3F0E0B7
:101150008A81808309C0E5E3F0E08A81808304C04E
:10116000E2E3F0E08A8180830F900F900F900F9060
:10117000CF91DF910895DF93CF93CDB7DEB7E89796
:101180000FB6F894DEBF0FBECDBF80E06FEF0E94B8
:10119000390883E065E041E00E94AB0683E066E049
:1011A00041E00E94AB0683E067E041E00E94AB06AD
:1011B00080E090E0ACE0B2E48DAB9EABAFABB8AFFB
:1011C0006DA97EA98FA998AD20E030E04AEF54E4E4
:1011D0000E941F02DC01CB0189AB9AABABABBCAB6D
:1011E00069A97AA98BA99CA920E030E040E85FE3D7
:1011F0000E94790388232CF481E090E098AB8FA7BC
:101200003FC069A97AA98BA99CA920E03FEF4FE7CD
:1012100057E40E94190318164CF56DA97EA98FA9F1
:1012200098AD20E030E040E251E40E941F02DC0172
:10123000CB01BC01CD010E944900DC01CB0198AB80
:101240008FA70FC088EC90E09EA78DA78DA59EA5C7
:101250000197F1F79EA78DA78FA598A9019798AB45
:101260008FA78FA598A9009769F714C069A97AA9D3
:101270008BA99CA90E944900DC01CB0198AB8FA7E8
:101280008FA598A99CA78BA78BA59CA50197F1F783
:101290009CA78BA788E30E949C0C80E090E0A0E8CC
:1012A000BFE38FA398A7A9A7BAA76FA178A589A51F
:1012B0009AA520E030E04AEF54E40E941F02DC01CE
:1012C000CB018BA39CA3ADA3BEA36BA17CA18DA1DD
:1012D0009EA120E030E040E85FE30E94790388238C
:1012E0002CF481E090E09AA389A33FC06BA17CA17C
:1012F0008DA19EA120E03FEF4FE757E40E94190324
:1013000018164CF56FA178A589A59AA520E030E0C4
:1013100040E251E40E941F02DC01CB01BC01CD017F
:101320000E944900DC01CB019AA389A30FC088EC7D
:1013300090E098A38F8F8F8D98A10197F1F798A3D4
:101340008F8F89A19AA101979AA389A389A19AA1B4
:10135000009769F714C06BA17CA18DA19EA10E948A
:101360004900DC01CB019AA389A389A19AA19E8F90
:101370008D8F8D8D9E8D0197F1F79E8F8D8F8FE0D4
:101380000E949C0C80E090E0A0E8BFE3898F9A8FD8
:10139000AB8FBC8F698D7A8D8B8D9C8D20E030E07A
:1013A0004AEF54E40E941F02DC01CB018D8B9E8B1F
:1013B000AF8BB88F6D897E898F89988D20E030E062
:1013C00040E85FE30E94790388232CF481E090E0F9
:1013D0009C8B8B8B3FC06D897E898F89988D20E097
:1013E0003FEF4FE757E40E94190318164CF5698D3B
:1013F0007A8D8B8D9C8D20E030E040E251E40E949C
:101400001F02DC01CB01BC01CD010E944900DC01BF
:10141000CB019C8B8B8B0FC088EC90E09A8B898BD7
:1014200089899A890197F1F79A8B898B8B899C8995
:1014300001979C8B8B8B8B899C89009769F714C0D3
:101440006D897E898F89988D0E944900DC01CB01CE
:101450009C8B8B8B8B899C89988B8F878F859889A8
:101460000197F1F7988B8F8781E00E949C0C80E0B8
:1014700090E0A0E0B0E48B879C87AD87BE876B854A
:101480007C858D859E8520E030E04AEF54E40E9403
:101490001F02DC01CB018F839887A987BA876F81F0
:1014A000788589859A8520E030E040E85FE30E94F6
:1014B000790388232CF481E090E09E838D833FC0E4
:1014C0006F81788589859A8520E03FEF4FE757E463
:1014D0000E94190318164CF56B857C858D859E85B9
:1014E00020E030E040E251E40E941F02DC01CB0129
:1014F000BC01CD010E944900DC01CB019E838D839C
:101500000FC088EC90E09C838B838B819C8101973A
:10151000F1F79C838B838D819E8101979E838D83C0
:101520008D819E81009769F714C06F8178858985C8
:101530009A850E944900DC01CB019E838D838D81B9
:101540009E819A83898389819A810197F1F79A8391
:10155000898386E00E949C0CE8960FB6F894DEBF63
:101560000FBECDBFCF91DF910895DF93CF93CDB75D
:10157000DEB7E8970FB6F894DEBF0FBECDBF80E0B0
:1015800090E0ACE0B2E48DAB9EABAFABB8AF6DA971
:101590007EA98FA998AD20E030E04AEF54E40E9484
:1015A0001F02DC01CB0189AB9AABABABBCAB69A929
:1015B0007AA98BA99CA920E030E040E85FE30E9473
:1015C000790388232CF481E090E098AB8FA73FC08B
:1015D00069A97AA98BA99CA920E03FEF4FE757E4BE
:1015E0000E94190318164CF56DA97EA98FA998AD14
:1015F00020E030E040E251E40E941F02DC01CB0118
:10160000BC01CD010E944900DC01CB0198AB8FA742
:101610000FC088EC90E09EA78DA78DA59EA5019791
:10162000F1F79EA78DA78FA598A9019798AB8FA7D3
:101630008FA598A9009769F714C069A97AA98BA901
:101640009CA90E944900DC01CB0198AB8FA78FA514
:1016500098A99CA78BA78BA59CA50197F1F79CA7A0
:101660008BA780EA0E949C0C80E090E0A0E8BFE39A
:101670008FA398A7A9A7BAA76FA178A589A59AA5AE
:1016800020E030E04AEF54E40E941F02DC01CB016D
:101690008BA39CA3ADA3BEA36BA17CA18DA19EA196
:1016A00020E030E040E85FE30E94790388232CF4D7
:1016B00081E090E09AA389A33FC06BA17CA18DA19A
:1016C0009EA120E03FEF4FE757E40E941903181650
:1016D0004CF56FA178A589A59AA520E030E040E2FD
:1016E00051E40E941F02DC01CB01BC01CD010E942C
:1016F0004900DC01CB019AA389A30FC088EC90E0DC
:1017000098A38F8F8F8D98A10197F1F798A38F8F52
:1017100089A19AA101979AA389A389A19AA1009767
:1017200069F714C06BA17CA18DA19EA10E94490004
:10173000DC01CB019AA389A389A19AA19E8F8D8FE9
:101740008D8D9E8D0197F1F79E8F8D8F80EF0E947A
:101750009C0C80E090E0A0E8BFE3898F9A8FAB8F6C
:10176000BC8F698D7A8D8B8D9C8D20E030E04AEFA7
:1017700054E40E941F02DC01CB018D8B9E8BAF8B4A
:10178000B88F6D897E898F89988D20E030E040E8A0
:101790005FE30E94790388232CF481E090E09C8B26
:1017A0008B8B3FC06D897E898F89988D20E03FEFBC
:1017B0004FE757E40E94190318164CF5698D7A8D8E
:1017C0008B8D9C8D20E030E040E251E40E941F02AE
:1017D000DC01CB01BC01CD010E944900DC01CB0141
:1017E0009C8B8B8B0FC088EC90E09A8B898B8989BE
:1017F0009A890197F1F79A8B898B8B899C8901973C
:101800009C8B8B8B8B899C89009769F714C06D89A1
:101810007E898F89988D0E944900DC01CB019C8BC9
:101820008B8B8B899C89988B8F878F859889019763
:10183000F1F7988B8F8780E10E949C0C80E090E00C
:10184000A0E0B0E48B879C87AD87BE876B857C85E5
:101850008D859E8520E030E04AEF54E40E941F020F
:10186000DC01CB018F839887A987BA876F81788540
:1018700089859A8520E030E040E85FE30E947903A3
:1018800088232CF481E090E09E838D833FC06F819C
:10189000788589859A8520E03FEF4FE757E40E94DD
:1018A000190318164CF56B857C858D859E8520E087
:1018B00030E040E251E40E941F02DC01CB01BC0198
:1018C000CD010E944900DC01CB019E838D830FC0B6
:1018D00088EC90E09C838B838B819C810197F1F74E
:1018E0009C838B838D819E8101979E838D838D81C7
:1018F0009E81009769F714C06F81788589859A85E4
:101900000E944900DC01CB019E838D838D819E81E5
:101910009A83898389819A810197F1F79A838983D0
:1019200080E60E949C0CE8960FB6F894DEBF0FBECE
:10193000CDBFCF91DF910895DF93CF93CDB7DEB7C1
:101940002F970FB6F894DEBF0FBECDBF8F8783E011
:1019500067E040E00E94A30583E066E040E00E946B
:10196000A30580E06F850E947A0883E065E041E08E
:101970000E94A30580E090E0A0E8BFE38B879C87EE
:10198000AD87BE876B857C858D859E8520E030E0A8
:101990004AEF54E40E941F02DC01CB018F83988739
:1019A000A987BA876F81788589859A8520E030E09C
:1019B00040E85FE30E94790388232CF481E090E003
:1019C0009E838D833FC06F81788589859A8520E0CD
:1019D0003FEF4FE757E40E94190318164CF56B854B
:1019E0007C858D859E8520E030E040E251E40E94B8
:1019F0001F02DC01CB01BC01CD010E944900DC01CA
:101A0000CB019E838D830FC088EC90E09C838B83F9
:101A10008B819C810197F1F79C838B838D819E81C3
:101A200001979E838D838D819E81009769F714C0F5
:101A30006F81788589859A850E944900DC01CB01F8
:101A40009E838D838D819E819A83898389819A81EA
:101A50000197F1F79A83898383E065E040E00E9473
:101A6000A3052F960FB6F894DEBF0FBECDBFCF9162
:101A7000DF910895DF93CF93CDB7DEB72F970FB6E1
:101A8000F894DEBF0FBECDBF8F8783E067E041E0F3
:101A90000E94A30583E066E040E00E94A30580E089
:101AA0006F850E947A0883E065E041E00E94A3050B
:101AB00080E090E0A0E8BFE38B879C87AD87BE877E
:101AC0006B857C858D859E8520E030E04AEF54E46F
:101AD0000E941F02DC01CB018F839887A987BA87F8
:101AE0006F81788589859A8520E030E040E85FE362
:101AF0000E94790388232CF481E090E09E838D83FB
:101B00003FC06F81788589859A8520E03FEF4FE758
:101B100057E40E94190318164CF56B857C858D855A
:101B20009E8520E030E040E251E40E941F02DC018B
:101B3000CB01BC01CD010E944900DC01CB019E8399
:101B40008D830FC088EC90E09C838B838B819C817C
:101B50000197F1F79C838B838D819E8101979E83F2
:101B60008D838D819E81009769F714C06F81788580
:101B700089859A850E944900DC01CB019E838D8373
:101B80008D819E819A83898389819A810197F1F75A
:101B90009A83898383E065E040E00E94A3052F9645
:101BA0000FB6F894DEBF0FBECDBFCF91DF91089581
:101BB000DF93CF9300D00F92CDB7DEB79B838A839C
:101BC00019820EC08981282F30E08A819B81FC0117
:101BD000E20FF31F80810E943A0D89818F5F898314
:101BE0008981282F30E08A819B81FC01E20FF31F5D
:101BF0008081882339F70F900F900F90CF91DF915C
:101C00000895DF93CF9300D0CDB7DEB789836A8381
:101C10008981882329F48A8180580E949C0C07C0FE
:101C20008981813021F48A8180540E949C0C0F901C
:101C30000F90CF91DF910895DF93CF93CDB7DEB7AB
:101C400028970FB6F894DEBF0FBECDBF9E838D835D
:101C500078876F8381E090E09C838B8381E090E0C4
:101C60009A83898381E090E09C838B8313C02981D0
:101C70003A818D819E81AC01249FC001259F900DEA
:101C8000349F900D11249A8389838B819C810196C6
:101C90009C838B832B813C818F819885821793074E
:101CA00034F789819A8128960FB6F894DEBF0FBE6B
:101CB000CDBFCF91DF910895EF92FF920F931F93C5
:101CC000DF93CF93CDB7DEB72F970FB6F894DEBF73
:101CD0000FBECDBF6C877D878E879F878C859D8546
:101CE000AE85BF8588879987AA87BB871C821D829E
:101CF0001E821F821A82198215C08A818F5F8A8391
:101D00008C859D85AE85BF852AE030E040E050E0BF
:101D1000BC01CD010E942112DA01C9018C879D8787
:101D2000AE87BF878C859D85AE85BF850097A10551
:101D3000B10519F788859985AA85BB858C879D870C
:101D4000AE87BF878C859D85AE85BF852AE030E054
:101D500040E050E0BC01CD010E942112DC01CB012A
:101D60000097A105B10511F481E089838C859D85DB
:101D7000AE85BF8524E630E040E050E0BC01CD01F7
:101D80000E942112DC01CB010097A105B10511F4DD
:101D900082E089838C859D85AE85BF8528EE33E002
:101DA00040E050E0BC01CD010E942112DC01CB01DA
:101DB0000097A105B10511F483E089838C859D8589
:101DC000AE85BF8520E137E240E050E0BC01CD01A7
:101DD0000E942112DC01CB010097A105B10511F48D
:101DE00084E089838C859D85AE85BF8520EA36E8B1
:101DF00041E050E0BC01CD010E942112DC01CB0189
:101E00000097A105B10511F485E089838C859D8536
:101E1000AE85BF8520E432E44FE050E0BC01CD0147
:101E20000E942112DC01CB010097A105B10511F43C
:101E300086E089838C859D85AE85BF8520E836E95F
:101E400048E950E0BC01CD010E942112DC01CB0128
:101E50000097A105B10511F487E089838C859D85E4
:101E6000AE85BF8520E031EE45EF55E0BC01CD01E8
:101E70000E942112DC01CB010097A105B10511F4EC
:101E800088E089838C859D85AE85BF8520E03AEC0E
:101E90004AE95BE3BC01CD010E942112DC01CB01C8
:101EA0000097A105B10511F489E089838A818B83AC
:101EB00048C08C859D85AE85BF852AE030E040E036
:101EC00050E0BC01CD010E942112DC01CB017C015C
:101ED0008D018B81992787FD90959C012150304081
:101EE0008AE090E0B9010E941C0E9C01442737FD56
:101EF0004095542FC801B7010E9402129B01AC010A
:101F00008C819D81AE81BF81820F931FA41FB51F5D
:101F10008C839D83AE83BF838C859D85AE85BF8575
:101F20002AE030E040E050E0BC01CD010E942112E7
:101F3000DA01C9018C879D87AE87BF878B8181506D
:101F40008B838B8118160CF4B4CF25C08C819D81B6
:101F5000AE81BF812AE030E040E050E0BC01CD011D
:101F60000E942112DC01CB018B838B81805D0E945A
:101F70003A0D8C819D81AE81BF812AE030E040E046
:101F800050E0BC01CD010E942112DA01C9018C830D
:101F90009D83AE83BF838C819D81AE81BF8100977D
:101FA000A105B10599F61B8206C080E30E943A0D97
:101FB0008B818F5F8B839B8189819817B4F32F96D8
:101FC0000FB6F894DEBF0FBECDBFCF91DF911F914A
:101FD0000F91FF90EF900895DF93CF93CDB7DEB7C9
:101FE00081E00E949C0CCF91DF910895DF93CF9305
:101FF000CDB7DEB782E00E949C0CCF91DF910895AF
:10200000DF93CF93CDB7DEB78CE10E949C0CCF91CC
:10201000DF910895DF93CF93CDB7DEB788E10E94BB
:102020009C0CCF91DF910895DF93CF9300D00F9256
:10203000CDB7DEB78B8380919E0090919F009093E7
:10204000A1008093A00084E090E00E9495129A8302
:1020500089838B81882F90E0E981FA819183808345
:10206000E981FA811382128280919E0090919F00F3
:10207000009789F489819A8190939F0080939E00B4
:102080001AC0E091A000F091A10082819381909309
:10209000A1008093A000E091A000F091A1008281B6
:1020A0009381009771F7E091A000F091A1008981E0
:1020B0009A81938382830F900F900F90CF91DF913D
:1020C0000895DF93CF9300D00F92CDB7DEB78B8307
:1020D00080919E0090919F009093A1008093A0001A
:1020E00084E090E00E9495129A8389838B81882FE7
:1020F00090E0E981FA81918380838091A0009091A2
:10210000A100E981FA819383828389819A819093E6
:102110009F0080939E000F900F900F90CF91DF91C2
:102120000895DF93CF9300D000D00F92CDB7DEB7E4
:102130008C836D831B8280919E0090919F00909371
:10214000A1008093A00084E090E00E9495129A8301
:1021500089838C81882F90E0E981FA819183808343
:102160001B8229C08B81282F30E08D81882F90E041
:1021700001972817390791F4E091A000F091A10090
:1021800082819381E981FA8193838283E091A00027
:10219000F091A10089819A8193838283E091A000CC
:1021A000F091A100828193819093A1008093A0007F
:1021B0008B818F5F8B839B818D81981798F20F9015
:1021C0000F900F900F900F90CF91DF910895DF93B4
:1021D000CF9300D00F92CDB7DEB78A836B8319827D
:1021E00080919E0090919F009093A1008093A00009
:1021F00019820DC0E091A000F091A100828193812D
:102200009093A1008093A00089818F5F8983998139
:102210008B81981778F3E091A000F091A1008A815A
:10222000882F90E0918380830F900F900F90CF9133
:10223000DF910895DF93CF9300D00F92CDB7DEB733
:102240008A83198280919E0090919F009093A100B3
:102250008093A0001CC0E091A000F091A10020811B
:1022600031818A81882F90E02817390719F48981F4
:102270008B8315C0E091A000F091A1008281938131
:102280009093A1008093A00089818F5F89838091C2
:10229000A0009091A1000097F1F68FEF8B838B81C6
:1022A0000F900F900F90CF91DF910895DF93CF9310
:1022B00000D0CDB7DEB79A83898380E690E00E9494
:1022C000D80D89819A819093A1008093A000E0911C
:1022D000A000F091A10080819181CC01A0E0B0E04C
:1022E000BC01CD010E945C0E87E690E00E94D80DF3
:1022F0001BC0E091A000F091A10082819381909396
:10230000A1008093A000E091A000F091A100808145
:102310009181CC01A0E0B0E0BC01CD010E945C0E37
:1023200087E690E00E94D80DE091A000F091A10016
:10233000828193810097E9F68AE690E00E94D80DA9
:102340000F900F90CF91DF910895DF93CF9300D03E
:10235000CDB7DEB785E08A8385E08093A20009C00F
:102360008091A2000E9414108091A2008F5F809340
:10237000A2008091A200873098F384E00E9461104F
:1023800087E062E00E94911089E062E00E94E7101D
:102390008A810E941A1189830E94BB080E94EC0F57
:1023A00080919E0090919F000E94561181E060E014
:1023B0000E94010E898188232CF48FE690E00E9410
:1023C000D80D1BC080E890E00E94D80D8A81882F2C
:1023D00090E0A0E0B0E0BC01CD010E945C0E87E877
:1023E00090E00E94D80D8981992787FD9095A92FAB
:1023F000B92FBC01CD010E945C0E0F900F90CF91C0
:10240000DF910895629FD001739FF001829FE00DDC
:10241000F11D649FE00DF11D929FF00D839FF00D63
:10242000749FF00D659FF00D9927729FB00DE11D0F
:10243000F91F639FB00DE11DF91FBD01CF011124EC
:10244000089597FB092E05260ED057FD04D014D011
:102450000AD0001C38F450954095309521953F4F97
:102460004F4F5F4F0895F6F7909580957095619561
:102470007F4F8F4F9F4F0895A1E21A2EAA1BBB1BBF
:10248000FD010DC0AA1FBB1FEE1FFF1FA217B30740
:10249000E407F50720F0A21BB30BE40BF50B661F56
:1024A000771F881F991F1A9469F76095709580951A
:1024B00090959B01AC01BD01CF0108952F923F92F1
:1024C0004F925F926F927F928F929F92AF92BF9244
:1024D000CF92DF92EF92FF920F931F93CF93DF93F0
:1024E000CDB7DEB7CA1BDB0B0FB6F894DEBF0FBE4D
:1024F000CDBF09942A88398848885F846E847D849A
:102500008C849B84AA84B984C884DF80EE80FD809B
:102510000C811B81AA81B981CE0FD11D0FB6F89411
:10252000DEBF0FBECDBFED010895CF93DF93BC0199
:102530008230910510F462E070E0A091A500B091A6
:10254000A600ED01E0E0F0E040E050E021C088812D
:1025500099818617970769F48A819B81309719F0D2
:102560009383828304C09093A6008093A500FE010C
:1025700034C06817790738F44115510519F08417EC
:10258000950708F4AC01FE018A819B819C01E90159
:102590002097E9F641155105A9F1CA01861B970B51
:1025A000049708F4BA01E0E0F0E02AC08D919C9114
:1025B000119784179507F9F46417750781F412963B
:1025C0008D919C911397309719F09383828304C067
:1025D0009093A6008093A500FD0132964FC0CA01DA
:1025E000861B970BFD01E80FF91F6193719302970A
:1025F0008D939C9343C0FD01828193819C01D901FD
:102600001097A1F68091A3009091A400892B41F42A
:102610008091990090919A009093A4008093A300D8
:1026200040919B0050919C004115510541F44DB7DC
:102630005EB78091970090919800481B590B2091AC
:10264000A3003091A40024173507B0F4CA01821BFF
:10265000930B8617970780F0AB014E5F5F4F84178F
:10266000950750F0420F531F5093A4004093A300CE
:10267000F9016193719302C0E0E0F0E0CF01DF91D6
:10268000CF910895CF93DF93009709F450C0EC01E8
:1026900022971B821A82A091A500B091A6001097E4
:1026A00009F140E050E0AC17BD0708F1BB83AA83F5
:1026B000FE0121913191E20FF31FAE17BF0779F4AC
:1026C0008D919C911197280F391F2E5F3F4F3983B1
:1026D000288312968D919C9113979B838A83411531
:1026E000510571F4D093A600C093A50020C01296A6
:1026F0008D919C911397AD01009711F0DC01D3CF20
:10270000FA01D383C28321913191E20FF31FCE17D7
:10271000DF0769F488819981280F391F2E5F3F4FA9
:10272000FA01318320838A819B8193838283DF91A5
:08273000CF910895F894FFCF4A
:10273800686561642D3E002D3E004E554C4C00737B
:1027480065617263683A4E4F545F466F756E6400F8
:1027580076616C75653A0020696E6465783A0000A8
:0E276800000000000000002000A7000000009C
:00000001FF
